:1018000050C084C069C068C067C066C065C064C09D
:1018100063C062C061C060C05FC05EC05DC05CC0CC
:101820005BC05AC059C00403090412036F00620070
:101830006400650076002E0061007400100348000B
:101840004900440042006F006F0074001201100153
:1018500000000008C016DF050101010200010902B5
:101860002200010100803209040000010300000091
:10187000092101010001222100070581030800C898
:101880000600FF0901A101150026FF00750885016A
:1018900095060900B20201850295830900B2020192
:1018A000C00011241FBECFE5D4E0DEBFCDBF10E0E5
:1018B000A0E6B0E0E6EAFFE102C005900D92AA368C
:1018C000B107D9F710E0AAE6B0E001C01D92AB392C
:1018D000B107E1F74CD165C393CFA82FB92F80E0B2
:1018E00090E041E050EA609530E009C02D918227F8
:1018F0009795879510F084279527305EC8F36F5F22
:10190000A8F30895EADF8D939D930895CF93CFB701
:10191000CF93C395B09BE9F7B09B09C0B09B07C0BC
:10192000B09B05C0B09B03C0B09B01C0A3C0DF93B8
:10193000C0917E00DD27CB57DF4FB09B02C0DF9107
:10194000EBCF2F930F931F9306B32FEF00FB20F9DC
:101950004F933F9316B34FEF012700FB21F93BE074
:1019600031C04E7F012F16B3216028C0102F4D7F4C
:101970002260000006B329C04B7F2460012F0000C5
:1019800016B32BC016B3477F28602AC04F7E06B31C
:1019900020612CC04F7D16B320622FC04F7B06B351
:1019A000206432C0422706B349934FEF000010274E
:1019B00010FB20F916B31370C9F1297F91F20127AA
:1019C00000FB21F906B3237F89F2315058F110272B
:1019D00010FB22F916B3277E79F2012700FB23F9C9
:1019E0002F7C81F206B3102710FB24F92F7971F2B6
:1019F00000C016B3012700FB25F92F7359F200C070
:101A000006B3102710FB26F9223040F200C016B3AF
:101A1000012700FB27F9243028F64F77206816B3FA
:101A20000000F9CF10E41ABF002719C03B503195D0
:101A3000C31BD04010E41ABF0881033CF9F00B34FB
:101A4000E9F020917C001981110F1213EDCF4A812A
:101A5000441F093641F10D3211F0013E29F7009380
:101A600083003F914F911F910F912F91DF91CAB742
:101A7000C6FD4FCFCF91CFBFCF9118952091830056
:101A8000222379F310918100112321F5343022F1C2
:101A90003093810020937D0010917E003BE0311B4C
:101AA00030937E0019C00091810001309CF40AE55A
:101AB0004F7081F43091600034FD10C000936000DD
:101AC000C1E7D0E00FC02795A8F45150A9F4220F28
:101AD0000000F9CF4AE503C042ED01C0432FC4E145
:101AE000D0E032E017B31360C09A17BB08B320E40C
:101AF00013E05F93012756E008BB279520F451506F
:101B000021F4220FF9CF012756E000003B5A08BB11
:101B1000D0F2279528F4515029F4220F0000F9CF74
:101B2000012756E0279508BB20F4515021F4220FDD
:101B3000F9CF012756E02991332308BB21F60C7F0A
:101B400010918200110FC651D04008BB11F01093C4
:101B50007C0010E41ABF016017B31C7F402F4C7F3C
:101B60005F9100C000C008BB17BB48BB7ACF2F9263
:101B70003F924F925F926F927F928F929F92AF921D
:101B8000BF92CF92DF92EF92FF920F931F93DF935A
:101B9000CF9300D000D000D0CDB7DEB783E084BBB8
:101BA0008EEF85BB88E28A95F1F781E08BBF82E0FA
:101BB0008BBF85B7836085BF8BB780648BBFB89AB6
:101BC00020E048EB5BE0A895CA010197F1F72150AE
:101BD000D1F7B898789483B3E82EFF2424E0E2226A
:101BE000FF241E821D82E4E1CE2EDD2400E070E79A
:101BF000A72E78E1B72E6AE2462E68E1562E56E20D
:101C0000252E58E1352E4CE4842E48E1942E32E600
:101C1000632E30E0732EA89590918100292F2350D8
:101C200027FD2BC180917E004CE050E0481B5109FC
:101C30004B575F4F5C834B8380917D008D3209F061
:101C4000B8C0283009F017C153EC509371006AE511
:101C50006093600010926A00AB81BC812C91822F4E
:101C6000807611969C9111978823C9F0993071F470
:101C700012968C91823031F410926D0027FD88C04D
:101C80009FEF8AC0B1E0B0936E0082C1913009F03D
:101C90007FC17092800060927F0027E07AC1EB8163
:101CA000FC81828110927A00992331F410927B009A
:101CB0008AE790E022E067C0953019F480938200B3
:101CC0005FC0963009F04CC0AB81BC8113968C91FB
:101CD000813029F49092800080927F001EC0823073
:101CE00041F4EEE5F8E1F0938000E0937F0022E21A
:101CF00033C08330F1F4AB81BC8112968C91882380
:101D000031F43092800020927F0024E025C08130A1
:101D100031F45092800040927F0022E11DC0823059
:101D2000D1F4ECE3F8E1F0938000E0937F0020E150
:101D300013C0813231F4B0928000A0927F0029E07C
:101D40000BC0823241F420E838E1309380002093C8
:101D50007F0021E201C020E030E430936A0019C125
:101D6000983019F484E890E009C0993019F4809310
:101D7000840006C09A3021F48AE790E021E003C095
:101D80008AE790E020E09093800080937F0001C17B
:101D9000AB81BC8116969C9180E880936A0006C056
:101DA000EB81FC819681921708F0922F909361004D
:101DB00062C080916A0087FF5EC040916B005091C5
:101DC0006C005A83498380916D00882389F4AB812C
:101DD000BC811196BC91B983EB81FC81F281FA83BD
:101DE0002B813C812C5F3F4F3C832B83292F275035
:101DF000322F380F30936D0089818F7359F4F89426
:101E000043E0E981FA8140935700E895789407B65A
:101E100000FCFDCFF89449815A81AB81BC818D9142
:101E20009C9161E0FA010C0160935700E895112440
:101E300078943296FA83E98389818F7351F4F89408
:101E400065E0FA0160935700E895789407B600FCC6
:101E5000FDCF225031F08B819C8102969C838B8335
:101E6000CBCFA981BA81B0936C00A0936B0037FFF0
:101E700002C010926100109281008091600084FF86
:101E800049C0809161008F3F09F444C0182F893008
:101E900008F018E0811B809361008091710098E840
:101EA000892780937100112341F120917F003091A7
:101EB000800080916A0086FF0DC0A2E7B0E080E05C
:101EC00090E0F901E80FF91FE491ED9301961817DE
:101ED000C1F708C0D901912FE2E7F0E08D9181931D
:101EE0009150E1F71150812F90E01F5F0196820F12
:101EF000931F9093800080937F0082E790E0612F92
:101F000001DD612F6C5F6C3019F08FEF8093610001
:101F10006093600094E186B3837031F49150D9F7F7
:101F20001092820010927C0080916E00882321F034
:101F3000DA9411F40150E9F0ED81FE813197FE83CE
:101F4000ED83EF2B29F485B3F3E08F2785BBCA948B
:101F5000E114F10449F483B390E096958795969542
:101F60008795817080936E009A9B55CECC2009F0A6
:101F700052CEF89481E180935700E8951BBE15BEC0
:101F800081E08BBF1BBEE0916F00F091700009955E
:101F900020E0AB81BC8117968C91882309F400CF97
:061FA00004CFF894FFCF0E
:0A1FA6005AFF014000002000000077
:0400000300001800E1
:00000001FF
