:1000000058C0C2C171C070C06FC06EC06DC06CC03E
:100010006BC06AC069C068C067C066C065C064C0A4
:1000200063C062C061C0C6C3CCC3FBC312C428C4D2
:1000300037C458C476C49CC4040309040E034200A8
:1000400072006A00740061006700160348004900EE
:1000500044002D00420072006A00740061006700D5
:100060000E03320030003100300031003000120148
:10007000100100000008C016DF05000101020301A5
:1000800009021B00010100801409040000000300A4
:1000900000000921010100012216000600FF0901EC
:1000A000A101150026FF00750895010900B20201A3
:1000B000C00011241FBECFE5D4E0DEBFCDBF10E0ED
:1000C000A0E6B0E0E0E7F1E102C005900D92A83EA5
:1000D000B107D9F712E0A8EEB0E001C01D92AC3B29
:1000E000B107E1F723D342C88BCF85B7826085BFC4
:1000F0008BB780648BBF08951F93CF93DF9360917C
:100100009C02635067FDBDC080919902CCE0D0E0B5
:10011000C81BD109C056DD4F809198028D3209F07D
:100120009EC0683009F0ABC083EC80938C028AE5F6
:10013000809360001092E8008881807639F0CE01CB
:1001400050D2282F8F3F09F479C07FC09A81109236
:1001500095028981882321F41092960222E067C0DB
:10016000853019F490939D0261C0863009F04FC02C
:100170008B81813041F48EE690E090939B028093D6
:100180009A0222E140C0823041F480E890E09093EE
:100190009B0280939A022BE136C08330F9F48A8166
:1001A000882341F488E390E090939B0280939A0225
:1001B00024E029C0813019F48CE390E009C082303A
:1001C00019F48AE490E018C08330E1F480E690E00E
:1001D00090939B0280939A022EE015C0813241F4E5
:1001E00082E990E090939B0280939A0229E00BC0F1
:1001F000823241F48BE990E090939B0280939A02C3
:1002000026E101C020E080E48093E8001EC0883031
:1002100021F421E08FE992E00CC0893019F4909329
:100220009F0204C08A3011F421E001C020E085E97A
:1002300092E090939B0280939A0207C0888187FD89
:100240002E8180E88093E80006C08F81882319F40E
:100250008E81821708F0822F8093610010C08091F8
:10026000E80087FF0CC0CE01C2D38F3F21F48EE19E
:100270008093600004C0882311F0109261001092F6
:100280009C028091600084FF58C0809161008F3F84
:1002900009F453C0182F893008F018E0811B8093AF
:1002A000610080918C0298E8892780938C02112349
:1002B00091F18091E80087FF08C08DE892E0612FFE
:1002C000C5D3182F893098F526C020919A02309115
:1002D0009B0286FF0DC0ADE8B2E080E090E0F9013E
:1002E000E80FF91FE491ED9301961817C1F708C0C4
:1002F000912FD901EDE8F2E08D9181939150E1F7D2
:100300001150812F90E01F5F0196820F931F9093F1
:100310009B0280939A028DE892E0612F31D0612F89
:100320006C5F6C3041F08FEF8093610004C08FEF01
:10033000809361006EE16093600094E186B3837006
:1003400031F49150D9F710929D0210929702DF91EB
:10035000CF911F910895A82FB92F80E090E041E040
:1003600050EA609530E009C02D91822797958795D6
:1003700010F084279527305EC8F36F5FA8F30895C7
:10038000EADF8D939D930895CF93CFB7CF93C39515
:10039000B09BE9F7B09B09C0B09B07C0B09B05C0FC
:1003A000B09B03C0B09B01C0A1C0DF93C091990274
:1003B000DD27C056DD4FB09B02C0DF91EBCF2F93FE
:1003C0000F931F9306B32FEF00FB20F94F933F933A
:1003D00016B34FEF012700FB21F93BE031C04E7F00
:1003E000012F16B3216028C0102F4D7F226000001E
:1003F00006B329C04B7F2460012F000016B32BC029
:1004000016B3477F28602AC04F7E06B320612CC0F8
:100410004F7D16B320622FC04F7B06B3206432C0DD
:10042000422706B349934FEF0000102710FB20F935
:1004300016B31370C9F1297F91F2012700FB21F94E
:1004400006B3237F89F2315058F1102710FB22F9AF
:1004500016B3277E79F2012700FB23F92F7C81F266
:1004600006B3102710FB24F92F7971F200C016B3E0
:10047000012700FB25F92F7359F200C006B310279E
:1004800010FB26F9223040F200C016B3012700FB12
:1004900027F9243028F64F77206816B30000F9CFEB
:1004A00010E41ABF002717C03B503195C31BD04042
:1004B00010E41ABF0881033CE9F00B34D9F0209115
:1004C00097021981110F1213EDCF093641F10D3248
:1004D00011F0013E39F700939E023F914F911F9119
:1004E0000F912F91DF91CAB7C6FD51CFCF91CFBFEA
:1004F000CF91189520919E02222379F310919C02AE
:10050000112311F5343012F130939C02209398029C
:10051000109199023BE0311B3093990217C0009172
:100520009C0201308CF40AE53091600034FD10C06B
:1005300000936000CCE8D2E00FC02795A8F451509A
:10054000A9F4220F0000F9CF4AE503C042ED01C033
:10055000432FC4E1D0E032E017B31360C09A17BB59
:1005600008B320E413E05F93012756E008BB27950A
:1005700020F4515021F4220FF9CF012756E000005A
:100580003B5A08BBD0F2279528F4515029F4220F8A
:100590000000F9CF012756E0279508BB20F4515001
:1005A00021F4220FF9CF012756E02991332308BB0C
:1005B00021F60C7F10919D02110FC651D04008BB4F
:1005C00011F01093970210E41ABF016017B31C7F5B
:1005D000402F4C7F5F9100C000C008BB17BB48BBD9
:1005E0007CCF1F93FC0180818076803411F020E065
:1005F0009AC09181943109F45EC0953140F49231F2
:1006000019F19331E8F5913109F086C00AC09132B1
:1006100008F482C0933208F46CC0933209F07CC0B5
:1006200050C080918102823009F476C082E48093C8
:10063000760282E78093770283E08093780281E0FC
:100640008093790224E069C080918102823011F4A4
:1006500020E013C088B3837C846088BB87B3837C2D
:100660008C6287BB11E01EB988EE93E012D266D28D
:10067000109276021093810221E0A99AA89A4DC0A7
:10068000809181028250833008F446C082818823A1
:1006900021F081E08093830202C010928302809156
:1006A0008302882311F480E701C081E78093620010
:1006B0001092760204C0809181028093760221E03C
:1006C0002CC080918102853039F5A89883E0809311
:1006D00081029093800240917F02242F30E0868136
:1006E00097818217930710F4868110C04093EA0027
:1006F0000FC080918102813079F4A89882E08093C4
:1007000081029093800286818093E9008093EA00C1
:100710001092EB002FEF07C020E086E792E0909365
:100720009B0280939A02822F1F910895AF92BF92ED
:10073000DF92EF92FF920F931F93DF93CF9300D03E
:10074000CDB7DEB72EE088E190E00FB6F894A8951B
:1007500081BD0FBE21BDC9DCB89A00E004C0A895D8
:1007600088EE93E096D10150D1F7B898A898789484
:1007700081E080938102DD24D394E5E0FE2E72E0D7
:10078000E72EA895B9DC2CC180917E02A82EBB244F
:100790008CEE90E0A80EB91ED5018C9190E0FC0182
:1007A0003197E930F10518F4ED5EFF4F099410E040
:1007B00001E001C1F501818190E06BD110E002E020
:1007C000FAC0D50112962C91129730E063E0220F07
:1007D000331F6A95E1F711968C91280F311DC901DD
:1007E000079653E0969587955A95E1F7182FE82FCD
:1007F000F0E0FA83E983BF016D5F7F4F6A0D7B1DD7
:1008000040917F0250E046515E4FC50103969DD155
:1008100089819A81880F991F9A83898309810D5F45
:10082000CAC0D50111968C918093BB0290E00796C7
:1008300033E0959587953A95E1F7182F60917F02FF
:1008400070E066517E4FC50102964AD2012F0E5FBD
:10085000B2C0F50111811093BB02809182028230F7
:1008600009F06CD1C50102960ED2812F90E0079657
:1008700023E0959587952A95E1F7082F0E5F9AC09A
:1008800080918202823009F059D160917F0270E03C
:1008900066517E4FC501019644D214E005E08BC03D
:1008A000D50111969C91892F83708093BA029295FD
:1008B0009F7011F09093BB02F50182819381A48116
:1008C000B5818093B6029093B702A093B802B0931B
:1008D000B90280917F0290E086519E4F2ED214E0A3
:1008E00006E069C0D50111969C91892F8370809391
:1008F000BA0292959F7011F09093BB02F50182812C
:100900009381A481B5818093B6029093B702A0939E
:10091000B802B093B902C50106969FD210E00AE072
:100920004AC0E092BA02D50111968C9182958F70DF
:1009300011F08093BB02F50182819381A481B5817E
:100940008093B6029093B702A093B802B093B90215
:100950000681013208F000E280917F0290E086512A
:100960009E4F602F06D3102F110F110F07E023C0E9
:10097000D50111969C91892F83708093BA0292952C
:100980009F7011F09093BB02F50182819381A48145
:10099000B5818093B6029093B702A093B802B0934A
:1009A000B902C50107966681693108F068E104D390
:1009B000082F095F10E090917E02900F90937E02C5
:1009C00020917F02210F20937F028091E9009817E8
:1009D00038F0222319F0F092810202C0D0928102F5
:1009E00080918102843009F4CFCEA99ACACE1F9398
:1009F000582F792F8091EA008823E1F0162F86176F
:100A000008F4182F2091EB0030E024513F4FC9012A
:100A1000652F412F50E0A1D38091EB00810F80938F
:100A2000EB008091EA00811B8093EA00882311F09B
:100A300080E00AC084E08093810210927F021092CD
:100A40007E02A998A89A81E01F9108951F93209192
:100A5000EA00162F261708F4122F2091EB0030E041
:100A600026513E4FB901412F50E077D38091EB00E2
:100A7000810F8093EB008091EA00811B8093EA0054
:100A8000882321F4A89A81E080938102812F1F910D
:100A900008959C01009709F440C08134910530F01D
:100AA0008138910548F480E08A95F1F7822F880F0C
:100AB000880F8A95F1F72AC045E58035940738F408
:100AC000880F991F820F931F0197F1F71FC04AE605
:100AD0005AEEFA013197F1F780529E446EE481326A
:100AE0009607B8F7C90181529E4460E27EE421D3A3
:100AF00080EE91EBAC01649FC001659F900D749FE7
:100B0000900D112420523E44280F391FC901880F2F
:100B1000991F820F931F0197F1F70895282F91E0F5
:100B20000AC0892F822311F0C29A01C0C298C59AC7
:100B3000C598990F61506623A1F708958FE166E08B
:100B4000EDDF82E08093820208950F931F93CF938D
:100B5000DF93EC01DB01FA0189012150304083E091
:100B60002F3B380708F03FC06115710511F460E0B4
:100B700003C01092820261E0108291E040E050E0F8
:100B800027C04115510541F0842F877029F4319613
:100B900010822196119691E0662321F08C91892391
:100BA00031F003C04217530711F4C29A01C0C29832
:100BB0008881892311F0C39A01C0C398B49B03C0F4
:100BC0008081892B8083C59AC598990F4F5F5F4FAD
:100BD00040175107B0F2662309F4C29AC59AC59826
:100BE000C298C59AC598DF91CF911F910F91089532
:100BF000CF93DF93EC01FB01542F842F90E00197FA
:100C000063E0959587956A95E1F7482FC298882308
:100C1000B9F0809162008DB9DE01242F30E0BF0170
:100C2000620F731F07C08C918FB9779BFECF11960F
:100C30008FB18193E617F707B1F7C20FD31F1DB825
:100C4000440F440F440F541B452F988121E030E09E
:100C50000EC0415009F4C29A822F892311F0C39A21
:100C600001C0C398B499322BC59AC598220F44236A
:100C700081F73083C29AC59AC598C298C59AC5981B
:100C8000DF91CF910895FC01208131814281538110
:100C90008091E3009091E400A091E500B091E6001E
:100CA00082179307A407B507D1F02093E300309390
:100CB000E4004093E5005093E600C29AC59AC598B7
:100CC000C29AC59AC598C298C59AC598C298C59A3D
:100CD000C598CF0164E872E04091BB0289DF0895B6
:100CE0000F931F93CF93DF93EC018B0180918202CE
:100CF000823009F023DFC29AC59AC598C29AC59A74
:100D0000C598C298C59AC598C298C59AC598CE018B
:100D1000B8014091BB026CDFDF91CF911F910F9121
:100D20000895C29AC59AC598C298C59AC598C2989E
:100D3000C59AC59840E25CDF0895AF92BF92CF920A
:100D4000DF92EF92FF920F931F93DF93CF93CDB774
:100D5000DEB72C970FB6F894DEBF0FBECDBF5C0197
:100D600080918202823009F0E9DE88E090E0A0E024
:100D7000B0E089839A83AB83BC838E010F5F1F4FE2
:100D8000C80181DFF9E0EF2EF12CEC0EFD1E86EBA1
:100D900092E0B701C6DF8AE090E0A0E0B0E089838E
:100DA0009A83AB83BC83C8016EDF8091BA0290E066
:100DB0009695982F882797958795AA2797FDA095B0
:100DC000BA2F9A68A6608D839E83AF83B8878E0101
:100DD0000B5F1F4FC801B701A4DF80E090E8A6E0D9
:100DE000B0E08D839E83AF83B887C801B70199DFD8
:100DF0007AEFD72EC02E012F1E2DEF2C08C08C2D80
:100E0000902F612F7E2D8DDFDD2039F0DA948985DA
:100E10009A85AB85BC8593FDF2CF89E090E0A0E098
:100E2000B0E089839A83AB83BC83CE0101962BDF2C
:100E3000CE010596B50175DF2C960FB6F894DEBF8E
:100E40000FBECDBFCF91DF911F910F91FF90EF901B
:100E5000DF90CF90BF90AF900895BF92CF92DF9276
:100E6000EF92FF920F931F93DF93CF93CDB7DEB72F
:100E70002C970FB6F894DEBF0FBECDBF6C018091EA
:100E80008202823009F05ADE88E090E0A0E0B0E013
:100E900089839A83AB83BC838E010F5F1F4FC80188
:100EA000F2DE89E0E82EF12CEC0EFD1E86EB92E0DE
:100EB000B70137DF89E090E0A0E0B0E089839A8352
:100EC000AB83BC83C801DFDEC601B7012ADF8AE03D
:100ED00090E0A0E0B0E089839A83AB83BC83C80133
:100EE000D2DE8091BA0290E09695982F8827979548
:100EF0008795AA2797FDA095BA2F9868A6608D833D
:100F00009E83AF83B8878E010B5F1F4FC801B70167
:100F100008DF80E090E8A6E0B0E08D839E83AF8399
:100F2000B887C801B701FDDEAAEFDA2EB02E012F77
:100F3000CE2CEF2C08C08B2D902F6C2D7E2DF1DE4A
:100F4000DD2039F0DA9489859A85AB85BC8593FDDF
:100F5000F2CF2C960FB6F894DEBF0FBECDBFCF9167
:100F6000DF911F910F91FF90EF90DF90CF90BF9096
:100F700008951F93CF93DF93162FEC0117C0CE0176
:100F8000DCDE8091B6029091B702A091B802B091D8
:100F9000B9020496A11DB11D8093B6029093B702C9
:100FA000A093B802B093B90224961150112339F7D7
:100FB000DF91CF911F9108952F923F924F925F92B0
:100FC0006F927F928F929F92AF92BF92CF92DF9259
:100FD000EF92FF920F931F93DF93CF93CDB7DEB7BE
:100FE00027970FB6F894DEBF0FBECDBF9F838E83C9
:100FF000A62E2090B6023090B7024090B8025090D2
:10100000B902FC0160807180828093808091BA0275
:10101000813019F0F1E0FD8302C082E08D83BB24B2
:1010200014E06AC000E074016301CB0CD11CE11C28
:10103000F11CAE81BF81A10FB11DEC91EF3F41F4D6
:1010400011968C9190E025DD1E5FED81BE0E53C0A0
:10105000EE23A1F411968D919D910D90BC91A02D40
:1010600089839A83AB83BC83C092B602D092B702C5
:10107000E092B802F092B9021B5F36C0E7FF37C0BA
:10108000F0E0EF70F070EE0FFF1FEE0FFF1FDF01BB
:10109000AD59BF4F8D919D910D90BC91A02DED55F7
:1010A000FF4F208131814281538121153105410556
:1010B000510569F0220D331D441D551D2093B602C4
:1010C0003093B7024093B8025093B90208C0C0925F
:1010D000B602D092B702E092B802F092B9028983C8
:1010E0009A83AB83BC831F5FCE010196B6DE0F5F90
:1010F000053009F09ECFAA94AA2009F093CF812F42
:1011000027960FB6F894DEBF0FBECDBFCF91DF910B
:101110001F910F91FF90EF90DF90CF90BF90AF9015
:101120009F908F907F906F905F904F903F902F9007
:101130000895AA1BBB1B51E107C0AA1FBB1FA6171E
:10114000B70710F0A61BB70B881F991F5A95A9F770
:1011500080959095BC01CD010895FB01DC0102C092
:1011600001900D9241505040D8F70895F894FFCF68
:101170005AFF70AA00AA0055005500A000A000AABE
:10118000AAAAAA55555555A0A0A0A0AA00AA0055E4
:10119000005500A000A0005000500040004000504A
:1011A000505050404040400000000000000000004F
:1011B000000000AA0A000054050000AA0A0000AAC4
:1011C0000A000055050000A0A0A0A0AAAA00005493
:1011D000550000AAAA000000000000000000000066
:1011E00000000000000000000000000000000000FF
:0811F000000000FFFFFFFF00FB
:00000001FF
