:020000040800F2
:1020000000040020014400086543000867430008FD
:10201000694300086B4300086D430008000000009E
:102020000000000000000000000000006F430008F6
:102030007143000800000000734300087543000866
:102040006144000865440008694400086D440008C4
:102050007144000875440008794400087D44000874
:102060008144000885440008894400088D44000824
:102070009144000895440008994400089D440008D4
:10208000A1440008A5440008A944000877430008BB
:102090007B430008B5440008B9440008BD4400086B
:1020A000C1440008C5440008C9440008CD440008E4
:1020B000D1440008D5440008D9440008DD44000894
:1020C000E1440008E5440008E9440008ED44000844
:1020D000F1440008F5440008F9440008FD440008F4
:1020E0000145000805450008094500082DE9F04FA5
:1020F00081B0DFF8C05A022068810020A88101F079
:10210000BCFDDFF8B89A4FF0804A4FF48048DFF802
:10211000A86A3078042840F06E81E9696889471818
:102120003A78EA81501E222800F24D81DFE810F053
:102130004E0058007100A500D700080116012201C9
:102140003D014B014B014B014B014B014B014B013D
:102150004B014B014B014B014B014B014B014B011F
:102160004B014B014B014B014B014B014B01230038
:102170002C004100480000F050F90120A989AA690B
:1021800000238B54012423E10120A989AA69422359
:102190008B54A989AA69891872224A70A989AA69E7
:1021A00089188870A989AA6989180222CA7004242A
:1021B0000EE10520D7F8011001B901216961DDE7C1
:1021C0000120AA8933785354642401E102207978EC
:1021D00001EB8102910001D0491EFDD10024F7E0FE
:1021E000B7F80130D81DC410A4B240F602008442F2
:1021F00004DB00200024A9886981E9E0A889A96995
:102200004218E019C11CF81C00F02FF96000C01C36
:10221000DEE078782870C01D0004C40CA889A96984
:1022200000EB010BBF1CA878022818BF00F0F5F8DE
:10223000012004226969521E10F0030314BF4346B3
:102240005346C9F800342023C9F800300B0001D0F0
:102250005B1EFDD12023C9F804300B0001D05B1EAA
:10226000FDD14006000E002AE5D12B785A46002108
:10227000384600F0FAF8A01CAAE0A878022818BF97
:1022800000F0CBF87A782A70B81C012104246B691D
:10229000641E11F0030714BFC446D446C9F800C435
:1022A0002027C9F800709C46BCF1000F00F00380A5
:1022B000BCF1010CFCD1C9F804709C46BCF1000FC4
:1022C00000F00380BCF1010CFCD14906090E002C82
:1022D000DED105F1A00100F045F9062078E0A878EC
:1022E000022818BF00F099F8A889A9694118781C3C
:1022F000012203246B69641ED7074CBFC446D44631
:10230000C9F800C42027C9F800709C46BCF1000F32
:1023100000F00380BCF1010CFCD1C9F804709C46AC
:10232000BCF1000F00F00380BCF1010CFCD152069F
:10233000120E002CDFD1202200F014F9052036E720
:10234000787800F003006870D7F802002861A88947
:10235000A969401800F06CF9062028E7787800F0A9
:1023600003006870D7F802002861B81D00F08BFAEE
:102370000A2033E702206870D7F802002861FC8841
:102380002746A889A96900EB010B5FB17F1E58465B
:1023900000F04EF92869001D28610BF1040BBFB253
:1023A000002FF3D1A400082012E0787800F0030099
:1023B0006870D7F802002861F98807F1080000F07A
:1023C0008AFB08300AE701200024DFF8F417CA72FC
:1023D000698940186881A9896118A981AA8880B291
:1023E0009042FFF496AE89B2002906BF01203070FA
:1023F00001F0CFFC8DE601B0BDE8F04F01F041BC2B
:10240000DFF8B40701210170DFF8A807002141813E
:102410008180C180018181817047F0B40120062153
:10242000DFF890275369DFF894474FF080454FF469
:102430008046491E10F01F0714BF37462F46C4F8C8
:102440000074202727601F0001D07F1EFDD12027A8
:1024500067601F0001D07F1EFDD14006000E0029DD
:10246000E7D102209070F0BC70472DE9F0430125C0
:102470004FF00008002B72D044F20804A3426ED241
:1024800021B1A846DFF82C470026A670002414705E
:102490000026A3F10109DFF82CC74FF4804E012E6E
:1024A00008DB16F0070405D1002402F8014F401C98
:1024B000491C0125B8F1000F05D00C782C4204D03E
:1024C000CCF808E403E04E45FAD0CCF80CE40478EC
:1024D0002C4219BF8024CCF808408024CCF80C4052
:1024E0002024CCF80840DFF8CC46646927460FB1B9
:1024F0007F1EFDD1DCF800707F0602D517782F43D0
:1025000017702027CCF80C70072C03D3A71F01D01D
:102510007F1EFDD16D062D0E761C9E42BFDBB8F1ED
:10252000000F1CD1012002214FF08042491EC30739
:102530004CBF73461346CCF808342023CCF808303F
:10254000230001D05B1EFDD12023CCF80C302300EA
:1025500001D05B1EFDD14006000E0029E6D1BDE88A
:10256000F08300002DE9F04101240023D0F800C0E1
:10257000DFF850064FF48048C0F80C84DFF834765A
:102580007E694FF4000E551E00F01B801CEA040FFC
:1025900014BF8025754685602025856035460DB1C0
:1025A0006D1EFDD105686D0648BF23432025C5601B
:1025B00035460DB16D1EFDD16400521ED2B2551EBE
:1025C000E4D1C0F808841CEA040F14BF80227246CC
:1025D0008260202282607E69320001D0521EFDD1CD
:1025E0000268520648BF23432022C260320001D055
:1025F000521EFDD10B60012102224FF08043521E7A
:10260000CC074CBF44461C46C0F8084420248460D4
:10261000340001D0641EFDD12024C460340001D0F8
:10262000641EFDD14906090E002AE8D1BDE8F081FB
:102630002DE9F04383B00446FA26DFF87855A878F0
:10264000022818BFFFF7E9FE0820019001200422AC
:102650006969DFF868754FF080484FF48049521E71
:1026600010F0030314BF4B464346C7F80034202341
:102670003B600B0001D05B1EFDD120237B600B0073
:1026800001D05B1EFDD14006000E002AE7D12A785A
:1026900005F1A00101A8FFF765FF01200322696988
:1026A000521EC3074CBF4B464346C7F80034202395
:1026B0003B600B0001D05B1EFDD120237B600B0033
:1026C00001D05B1EFDD14006000E002AE8D1202279
:1026D00002A905F11000FFF745FF0A200190012033
:1026E00004226969521E10F0030314BF4B4643468F
:1026F000C7F8003420233B600B0001D05B1EFDD1E6
:1027000020237B600B0001D05B1EFDD14006000E34
:10271000002AE7D12A7805F1A00101A8FFF722FFDE
:102720006878DFF8A41441EAC01000900120032269
:102730006969521EC3074CBF4B464346C7F8003475
:1027400020233B600B0001D05B1EFDD120237B606A
:102750000B0001D05B1EFDD14006000E002AE8D11F
:10276000202202A900A8FFF7FDFE4FF4D020009020
:10277000012003226969521EC3074CBF4B464346E2
:10278000C7F8003420233B600B0001D05B1EFDD155
:1027900020237B600B0001D05B1EFDD14006000EA4
:1027A000002AE8D1202202A900A8FFF7DBFE01E001
:1027B000761EF6B20298000520D501200322696931
:1027C000521EC3074CBF4B464346C7F80034202374
:1027D0003B600B0001D05B1EFDD120237B600B0012
:1027E00001D05B1EFDD14006000E002AE8D1202258
:1027F00002A900A8FFF7B6FE002ED9D1092001904A
:10280000012004216A69491E10F0030314BF4B46DE
:102810004346C7F8003420233B60130001D05B1E01
:10282000FDD120237B60130001D05B1EFDD140064B
:10283000000E0029E7D12A7805F1A00101A8FFF7D1
:1028400091FE012003216A69491EC3074CBF4B4614
:102850004346C7F8003420233B60130001D05B1EC1
:10286000FDD120237B60130001D05B1EFDD140060B
:10287000000E0029E8D12022214600A8FFF772FEB1
:1028800003B0BDE8F0832DE9F04383B00746FA2496
:10289000C84DA878022818BFFFF7BFFD0820019097
:1028A000012004226969C54E4FF080484FF48049E9
:1028B000521E10F0030314BF4B464346C6F80034C3
:1028C000202333600B0001D05B1EFDD120237360F9
:1028D0000B0001D05B1EFDD14006000E002AE7D19F
:1028E0002A7805F1A00101A8FFF73CFE0120032290
:1028F0006969521EC3074CBF4B464346C6F80034B5
:10290000202333600B0001D05B1EFDD120237360B8
:102910000B0001D05B1EFDD14006000E002AE8D15D
:10292000202200A905F11000FFF71CFE09200190EC
:10293000012004226969521E10F0030314BF4B46A4
:102940004346C6F80034202333600B0001D05B1EE1
:10295000FDD1202373600B0001D05B1EFDD140062A
:10296000000E002AE7D12A7805F1A00101A8FFF79F
:10297000F9FD012003226969521EC3074CBF4B4673
:102980004346C6F80034202333600B0001D05B1EA1
:10299000FDD1202373600B0001D05B1EFDD14006EA
:1029A000000E002AE8D1202200A93846FFF7DAFD00
:1029B0000A200190012004216A69491E10F00303D6
:1029C00014BF4B464346C6F800342023336013003F
:1029D00001D05B1EFDD120237360130001D05B1E6C
:1029E000FDD14006000E0029E7D12A7805F1A001AB
:1029F00001A8FFF7B7FD6878C00140F4D12002902C
:102A0000012003226969521EC3074CBF4B4643464F
:102A1000C6F80034202333600B0001D05B1EFDD1CB
:102A2000202373600B0001D05B1EFDD14006000E19
:102A3000002AE8D1202200A902A8FFF793FD4FF455
:102A4000D0200290012003226969521EC3074CBFA7
:102A50004B464346C6F80034202333600B0001D0B8
:102A60005B1EFDD1202373600B0001D05B1EFDD1E6
:102A70004006000E002AE8D1202200A902A8FFF794
:102A800071FD01E0641EE4B20098000520D501202C
:102A900003226969521EC3074CBF4B464346C6F822
:102AA0000034202333600B0001D05B1EFDD12023B6
:102AB00073600B0001D05B1EFDD14006000E002AA2
:102AC000E8D1202200A902A8FFF74CFD002CD9D1A3
:102AD00003B0BDE8F0832DE9F04F83B0044688468B
:102AE00000270426334DD5F810B02068029068788E
:102AF000012803D102208DF804000FE00120FAE73D
:102B00003019407800EB8001880001D0401EFDD1D3
:102B1000B01C86B29DF80400C719BFB21FFA88F036
:102B200048B3A0F101084FF0050A029807EB00092D
:102B300008E0711C8EB2286100A8FFF7A4FEBAF16C
:102B4000010AEBD0305DFF28DAD030B93019D0F867
:102B5000010000904846711DECE70106EFD500F03A
:102B60000F0005EB8000016A0091006E002814BF81
:102B700058444846DDE7304603B0BDE8F08F1048C2
:102B80000D49097801800B49CA8942808A88828070
:102B90008A89C280CA8802810A8942810A6982813F
:102BA000120CC2810A7802824A7842824989818263
:102BB00070470000000400200D1E00201008014096
:102BC0009C05002008080140008A060010B5DFF8C7
:102BD000C848002804D1206801210182002010BDCE
:102BE000DFF8B80800680068804720680A3010BD28
:102BF00010B5DFF8A448002804D120680121018223
:102C0000002010BDDFF894080068806880472068C5
:102C10000C3010BD10B5DFF880180968002803D10A
:102C200002200882002010BDDFF87C4800202080B0
:102C300008787F22104218D1487A810621784CBF4B
:102C400041F0020101F0FD0121704006207809D514
:102C500040F001002070DFF84408006800698047F8
:102C6000204610BD00F0FE00F4E700F07F02012ACC
:102C7000F6D000F07F000228D4D1487900F00F018F
:102C8000DFF82828000652F8210005D500F03000B2
:102C90001028E0D10020DBE700F44050B0F5805F61
:102CA000D9D10020D4E7F0B581B0DFF8EC07006897
:102CB000017811F07F0102BF417A01F0DF0141721A
:102CC00056D0022903D1418809B9017909B10220FE
:102CD0004FE0417921F08005DFF8D0470A0654F82B
:102CE00025204CBF02F0300202F44052DFF8B0372A
:102CF0001B789D42EBD2002AE9D0807A0028E6D0EA
:102D0000080654F825000BD500F0300010282AD111
:102D1000284600F09DFD3021284600F02BFD22E0E2
:102D200000F44050B0F5805F1DD148F280064BF6AC
:102D30008F776DB9DFF8780790F82C10002000F03D
:102D4000CDFD2068384080F44050304320600AE0D8
:102D5000284600F06CFD54F82500384080F44050BF
:102D6000304344F82500DFF83407006840698047A5
:102D7000002001B0F0BD30B581B0DFF81C0702685B
:102D8000537923F08000DFF824171C0651F8204007
:102D90004CBF04F0300404F44054DFF804572D789D
:102DA000A84204D2558815B90CB1927A0AB902200A
:102DB00019E048F280021B0651F8203042BF48F665
:102DC000BF74234083F0100304D44BF68F74234068
:102DD00083F480531A4341F82020DFF8C0060068CE
:102DE00080698047002001B030BDDFF8AC26126852
:102DF000538A20B98888C01A10820020704708685A
:102E000018187047F0B581B0DFF88C56286800F1CB
:102E100010042688A168080015D0A6B1A0888642B3
:102E200088BF06463046884707462088801B20809A
:102E3000608830186080002000F03DFD3246014679
:102E4000384601F091F9208860B1DFF868064FF448
:102E5000405101800021002000F037FDDFF85806C6
:102E60003021018028682188A288914202D3032161
:102E7000017211E009B10521FAE706210172DFF8BC
:102E80003C06006880B2DFF83816002241F81020B6
:102E9000DFF824063021018001B0F0BD2DE9F041BA
:102EA000DFF8F445206800F110063188E1B9007AB6
:102EB000042819D1DFF80C06DFF8FC150278012A86
:102EC0000ED1DFF8F825126892B2DFF8F43500254C
:102ED00043F8125030220A800425002101702CE0B2
:102EE00007251020088028E0B7888F4205D30425E5
:102EF000B94288BF39460F4600E00225B8B2B16832
:102F000088478046002000F0CCFCBAB2014640461B
:102F100001F014F9B9B2002000F0D7FC3088C01BD2
:102F20003080708838187080DFF88C05302101807F
:102F3000DFF880054FF44051018020680572BDE83C
:102F4000F08130B581B0DFF85045206845780178D0
:102F50007F22114243D1092D12D1C178DFF84025DB
:102F600052788A4267D38278002A64D18288002A04
:102F700061D18172DFF8240500684068804766E00F
:102F8000052D0BD1C178802906D2817821B981889D
:102F900011B9807A00285AD0082066E0032D11D19B
:102FA000C178012947D18188002944D1417A8A0614
:102FB00041D541F020014172DFF8E0040068C069AA
:102FC000804744E0012D36D1C178012933D1818871
:102FD00089BB407A80062ED5FFF765FE2AE001F016
:102FE0007F02012A1CD10B2D25D1C1784079DFF851
:102FF000B42412689269904721688A7ADAB1D0B90C
:103000000879C0B98878B0B9DFF890040068C06862
:10301000804720684179C1722068C178017316E049
:1030200001F07F00022806D1012DD5D0032D02D159
:10303000FFF7A1FE58B12846DFF86814096849690E
:103040008847032808BF09200FD00028A4D10620F4
:10305000DFF86814096889B2DFF86424002342F8B5
:103060001130DFF8541430220A802168087201B050
:1030700030BD10B582B0DFF82044206841780629C1
:103080001AD101787F22114238D18078012802BFFD
:10309000DFF810040068C16900F08080022802BFD8
:1030A000DFF800040068016A78D0032826D1DFF831
:1030B000F4030068416A71E0002949D14188E9B907
:1030C000C18802291AD10179C1B901787F22114240
:1030D00004D1828812B9DFF8F0135FE001F07F02BB
:1030E000012A18D100214079DFF8B82312689269CB
:1030F000904718B92068807A0028ECD12068407881
:10310000DFF8A01309680969884703284FD12068B0
:103110000921017285E001F07F010229EED1407999
:1031200000F00F0100F07002DFF88033000653F862
:1031300021004CBF00F0300000F44050DFF8603355
:103140001B789942DAD2002AD8D10028C3D1D5E71A
:10315000082906D100787F210842CFD1DFF86C130F
:103160001CE00A29CAD1017801F07F010129C5D1EB
:10317000817A0029C2D041880029BFD10179002974
:10318000BCD1C1880129B9D100214079C54A126852
:10319000926990470028B1D1DFF834130800ADD010
:1031A0002068002242828161002088470020216837
:1031B0000A8A4FF6FF739A4202D10920087230E062
:1031C000022800D00AB90820F8E70878000622D5BE
:1031D000C8880090009B93423CBF0098088212D39D
:1031E000824210D2AF48006890F82C0082423CBF67
:1031F000B448002206D392FBF0F300FB132010B971
:10320000B04801220270A748006890F82C0088821C
:10321000FFF744FE05E003200872A6484FF4405132
:10322000018002B010BD30B581B0AA48A349096839
:1032300089B2A94A32F8111000EB4100964C21687E
:103240000A7A092A14D010F8012B0A70216810F8A4
:10325000012B4A70851C35F8040B00F073FB2168C4
:103260004880288800F06EFB21688880A888C88084
:103270002068012101722068C08810B9FFF761FE43
:1032800001E0FFF7F6FE8A4890F82C10002000F0CD
:1032900025FB2068017A082906D186494FF480521F
:1032A0000A80854910220A80007A09280CBF012073
:1032B000002001B030BDF0B581B0774C2068017AB4
:1032C000022901D0042904D1FFF7E8FD2068007A23
:1032D00057E0062954D1417805294DD101787F2244
:1032E000114249D1C0786E490A7800236F49002AFB
:1032F0003BD0D1F800C0561EF2070AD548F2800232
:1033000048F68F7505EA0C031A430A600123D1F8C9
:1033100004C076081ED048F2800248F68F75DFB2EE
:1033200005EA0C0C4CEA070C42EA0C0C41F827C0E9
:103330005B1CDFB251F827E005EA0E0C4CEA070CE3
:1033400042EA0C0C41F827C05B1CDFB251F827C0E1
:10335000761EE4D148F2800248F68F75DBB205EAAA
:103360000C051D432A4341F8232040F08000C86427
:103370004A480068006A80474A4800688068804779
:103380000820216808724A4890F82C10002000F0AC
:10339000A5FA2068017A082906D146494FF48052DF
:1033A0000A80454910220A80007A09280CBF0120B2
:1033B000002001B0F0BD10B5374C2068007A02281B
:1033C00010D004280ED0032801D0052804D1FFF71F
:1033D00019FD2068007A06E0072803D1314800680B
:1033E000C0688047082021680872314890F82C1086
:1033F000002000F073FA2068017A082906D12D49CF
:103400004FF480520A802C4910220A80007A092841
:1034100001D1012010BD002010BDF0B420490A7870
:10342000002322499AB30F68551EEA0709D548F2CE
:10343000800248F68F7404EA07031A430A600123E6
:103440004F686D0819D048F2800248F68F74DEB2DA
:1034500027403743174341F826705B1CDEB251F812
:1034600026C004EA0C073743174341F826705B1C5B
:10347000DEB251F826706D1EE9D148F2800248F69E
:103480008F74DBB23C401C43224341F8232040F0C0
:103490008000C864F0BC7047F01D0020F81D0020BB
:1034A00098050020F41D0020FC1D0020005C004059
:1034B000A8040020041E0020061E0020505C0040CE
:1034C000046000400C1E0020152C0008CD2B0008C5
:1034D000F12B0008006000400860004070470000C9
:1034E00000B581B0884800680021817200F0E6FED6
:1034F00000F02AFFFEF784FF84480021016001B03C
:1035000000BD00B581B08048016800228A72016860
:10351000CA7200687E49C979417200F0A3F87B48FD
:103520000121016001B000BD77480068807A10B1C8
:103530007648052101607047744804210160704796
:103540007047704700B581B06F4909680A7806284E
:1035500016D102F07F03012B12D1487908BB88787D
:10356000222809D16B4A10001BD08A6100204882B2
:103570009047002001B000BD212812D1664AF2E731
:1035800002F07F02402A0CD1212804D0222806D044
:10359000252802D005E0614AE5E7614AE3E7614A90
:1035A000E1E70220E6E700B581B0574909680978EC
:1035B00001F07F01402905D1242803D1FEF720FF27
:1035C000002000E0022001B000BD5749FFF70DBC0C
:1035D0005649FFF70ABC00B581B04B490968C97864
:1035E0000529AFBF0020524A02EBC101FFF7FDFBE6
:1035F00001B000BD4F49FFF7F8BB4F49FFF7F5BBDE
:1036000001B900B102207047002805D13E4800688A
:1036100001210182002070474848704700B581B001
:1036200028B93948006832210182002002E0FFF702
:10363000A6FA434801B000BD42494A8A48B9C87950
:10364000897901EB0020801A2F490968088200203F
:1036500070478878C97801EB002080B2384940185B
:103660001018704710B5002000F070F84FF400718A
:10367000002000F072F81021002000F07BF84021BB
:10368000002000F003F98021002000F0F2F8002073
:1036900000F0C0F82C4C94F82C10002000F01EF91B
:1036A000002000F0A8F80021022000F056F84FF4A6
:1036B000A071022000F0EAF894F82C10022000F02B
:1036C0000DF94FF44051022000F06DF80021022066
:1036D00000F050F80021012000F03FF8C021012047
:1036E00000F0C7F894F82C10012000F0F7F8002142
:1036F000012000F058F82021012000F03BF80020C4
:10370000BDE81040FFF789BEF01D0020001E00201C
:1037100064420008F5350008FB350008093600084A
:103720001D36000839360008700500207805002095
:10373000FC04002080050020880500200D1E0020CC
:103740009C050020D41D0020A80400204FF6F8712D
:103750000840DFF8D8110860704710B4DFF8D021B6
:1037600052F8203048F68F142340194342F82010B5
:1037700010BC704710B4DFF8B82152F8203048F67A
:10378000BF742340CC0648BF83F01003890644BFB2
:1037900083F020039BB248F28001194389B242F8BA
:1037A000201010BC704710B4DFF8842152F820308C
:1037B0004BF68F742340CC0448BF83F480538904B4
:1037C00044BF83F400539BB248F28001194389B28D
:1037D00042F8201010BC7047DFF8541151F8202037
:1037E00048F6BF731A4082F0300248F280031A4351
:1037F00041F820207047DFF8381151F820204BF6AF
:103800008F731A4082F4405248F280031A4341F801
:1038100020207047DFF8181151F8202048F68F63F8
:103820001A4048F280031A4341F820207047DFF81D
:10383000001151F82020520409D551F8202048F6F3
:103840008F731A404CF280031A4341F820207047CE
:10385000DFF8DC1051F82020520609D551F820205D
:1038600048F68F731A4048F2C0031A4341F82020EB
:103870007047DFF8B820126892B202EBC000DFF8A0
:10388000B4204908490042F810107047274A1268CE
:1038900092B202EBC000284A4908490042F81010D1
:1038A00070472249096889B201EBC000214951F8EB
:1038B000100080B270471D49096889B201EBC00051
:1038C0001D4951F8100080B27047184A126892B230
:1038D00002EBC000194A42F810107047134A1268F0
:1038E00092B202EBC000164A02EB40003F2909D316
:1038F0004A091F23194204BF521E92B2910241F499
:10390000004105E04A08C90744BF521C92B2910227
:10391000016070470549096889B201EBC000084998
:1039200051F810008005800D70470000505C004089
:10393000005C0040006000400860004004600040FF
:103940000C6000400106090C41EA1020704700009D
:103950002DE9F04F81B00020ADF8000048F280045E
:10396000664DDFF89C8140F68F7B664EDFF89891BC
:10397000DFF898A14BF6BF7726E000BF56F820107D
:10398000ADF80010BDF8001009040AD556F8201053
:103990000BEA010146F8201008EB800050F8040CF7
:1039A0008047BDF8000000060ED599F8000056F8D3
:1039B000201048F60F72114046F82010544901EBD0
:1039C000800050F8040C8047706CAAF800000004D6
:1039D00053D5BAF8000010F00F0089F80000CDD1DF
:1039E00030682880288800F030006880288800F43B
:1039F000405028803068384042F22001484020433F
:103A00003060BAF80000C006306806D448F60F717E
:103A100008403060FFF74FFC16E0ADF80000BDF83D
:103A20000000000506D53068594608403060FFF7B1
:103A3000FAFB09E0BDF800000004C5D5306859461E
:103A400008403060FFF7B7FC306838402988C90467
:103A500048BF80F480502988890448BF80F4005012
:103A60006988C90648BF80F010006988890648BF88
:103A700080F0200080B22043306001B0BDE8F08FBC
:103A80002DE9F04F81B048F60F74DFF8748040F6EE
:103A90008F76DFF870A01C4D47F6FF791B4FDFF8DB
:103AA00074B009E05AF8201031404AF8201008EBB1
:103AB000800050F8040C8047DBF8000038800004D8
:103AC00018D5CBF80090388800F00F0028705AF80D
:103AD000201089B20A04E5D40906EDD55AF8201061
:103AE00021404AF820100A4901EB800050F8040CEC
:103AF0008047E1E701B0BDE8F08F0000041E002020
:103B000054050020005C00400E1E00200A1E00200C
:103B100038050020445C004000B581B000F06EF92B
:103B20005A48016841F01001016001688908890064
:103B30000160016841F002010160002000F08EF98F
:103B4000002000F099F94FF4806000F08EF94FF4F6
:103B50002011002000F06BF9012000F070F93920ED
:103B600000F0A7F90028FAD0022000F06BF900BF9E
:103B700000F06FF90828FBD1012000F085F9012140
:103B8000082000F084F94FF4F070ADF80000102028
:103B90008DF8030003208DF8020000A93C4800F0D6
:103BA00021FA01B000BD01214FF4000000F078B906
:103BB00030B581B001210C2000F069F98020ADF80A
:103BC000000010208DF8030003208DF80200314C16
:103BD00000A9204600F006FA4020ADF800000420BD
:103BE0008DF8030000A9204600F0FCF94FF4804056
:103BF000ADF8000010208DF80300254D00A92846DF
:103C000000F0F0F94FF40050ADF8000004208DF8FA
:103C1000030000A9284600F0E5F92020ADF80000D7
:103C200010208DF8030000A9204600F0DBF901B058
:103C300030BD00B581B04FF4C06000F039FA1420F7
:103C40008DF8000001208DF801008DF802008DF83C
:103C5000030000A800F031FA13208DF800000120C5
:103C60008DF8010000208DF8020001208DF803007E
:103C700000A800F022FA01B000BD6021044800F065
:103C800012BA6021024800F010BA00000020024081
:103C9000000C01400008014070B54F4C207801280D
:103CA00002D0207802283CD12078012804D14B484A
:103CB000002101804A4801800220FFF72BFE0546C3
:103CC000012D16DB454E2A464FF4A0713088454B36
:103CD0001B68C01800F048FA2078012806D102209D
:103CE00020704148008808B13D4908803088281874
:103CF00030800220FFF77FFD3C4890F82C00854281
:103D000006DB3748008860B134490988814208D30E
:103D1000324E308800281DBF314908800420012020
:103D2000207070BD70B52C480178052908D0017845
:103D3000032905D020210120BDE87040FFF71ABDFE
:103D40000178052904BF03210170294C218809B994
:103D500001220270254890F82C50A942B8BF0D46A8
:103D60001E4E012D07DB2A46C0213088214B1B68DF
:103D7000C01800F0E3F929460120FFF7A6FD012055
:103D8000FFF72AFD2088401B2080308828183080CB
:103D900070BD30B581B018480088154C208013499B
:103DA00091F82C50A842B8BF05462A46C0211148B8
:103DB000006800F0C3F929460120FFF786FD0120C5
:103DC000FFF70AFD2088401B208004480580024838
:103DD0000521017001B030BD0D1E00200604002039
:103DE000040400201C04002080620040A80400207D
:103DF00008040020180400200C0400203748016843
:103E000041F0010101604168354A1140416001689B
:103E1000344A11400160016821F480210160416849
:103E200021F4FE0141604FF41F01816070472E4A6A
:103E3000136823F47C1318430843106070472B4920
:103E40000860704728490A68920850EA82000860B2
:103E500070472548006800F00C00704722490A6846
:103E600022F0F0021043086070471F490A6822F4EC
:103E7000E0621043086070471B490A6822F46052F0
:103E800042EAC00008607047194908607047194A43
:103E90000029116814BF084321EA00001060704730
:103EA000154A0029116814BF084321EA0000106078
:103EB00070474109094A012908BF116803D0022946
:103EC0000CBF116A516A012200F01F0002FA00F0D3
:103ED0000840401E8041C043C00F704700100240A0
:103EE0000000FFF8FFFFF6FE0410024060004242AF
:103EF000D8004242181002401C10024082B03548DF
:103F0000016841F0010101604168334A114041609C
:103F10000168324A11400160016821F4802101608A
:103F2000416821F4FE0141604FF41F0181600021CE
:103F300001910091016841F480310160016801F450
:103F4000003100910199491C0191009919B9019919
:103F5000B1F5A06FF2D1016801F40031491E894129
:103F6000C943C90F00910099012930D11C490A6841
:103F700042F010020A600A68920892000A600A6819
:103F800042F002020A604168416041684160416854
:103F900041F480614160416821F47C1141604168D5
:103FA00041F4E8114160016841F0807101600168ED
:103FB0008901FCD54168890889004160416841F068
:103FC00002014160416801F00C010829FAD102B0F8
:103FD00070470000001002400000FFF8FFFFF6FEEF
:103FE000002002402DE9F041CB7803F00F02DB0600
:103FF00044BF8B781A430B88DCB22CB3D0F800C0D6
:10400000002401255FF00F0605FA04F707EA03080C
:10401000B84514D14FEA840E06FA0EF82CEA080CC3
:1040200002FA0EFE4EEA0C0C91F803E0BEF1280FE6
:1040300008BF476103D0BEF1480F08BF0761641C89
:10404000082CE1D3C0F800C04FF48074A34228D3F9
:10405000D0F804C0002401255FF00F0604F1080722
:1040600005FA07F707EA0308B84515D14FEA840EA9
:1040700006FA0EF82CEA080C02FA0EFE4EEA0C0CB8
:1040800091F803E0BEF1280F08BF476191F803E003
:10409000BEF1480F08BF0761641C082CDED3C0F8CE
:1040A00004C0BDE8F08101617047416170470000C4
:1040B0001B4908431B490860704770B403781A46CF
:1040C0000121C478ECB1174B1B6803F4E063C3F51E
:1040D000E0631B0A4478C3F10405AC4085780F26E1
:1040E00026FA03F32B4023431B010F4C1355007892
:1040F00042110E4B00F01F0001FA00F043F82200BD
:1041000006E050110A4A03F01F03994042F82010BC
:1041100070BC7047074A1140084307490860704760
:104120000000FA050CED00E000E400E000E100E032
:1041300080E100E080FFFF1F08ED00E010B4114BAC
:1041400003EB4101521C521000F00B8010F8013BB0
:1041500010F8014B43EA042321F8023B891C521E4C
:10416000F4D110BC70470000064B03EB4101521C18
:10417000521005D051F8043B20F8023B521EF9D1F1
:10418000704700000060004070B50C4D0C4C20687A
:1041900028800C4E288831880840000448BFFFF76B
:1041A000D7FB288831880840400505D54FF6FF30F9
:1041B000206005484068804770BD00BF0A1E00208F
:1041C000445C0040081E0020A804002010B5FFF742
:1041D000A3FC4FF400514FF00060FFF79BFFFFF787
:1041E000E7FCFFF726FDFFF7DEFC00F09DF8FFF788
:1041F00044FD034C20780428FCD1FDF777FFF9E754
:104200000D1E002080B500F00FF902000023DB43F3
:104210001068984204D011000220ABBE002010604C
:104220005068984204D0111D0220ABBE002050609F
:1042300001BD000010B40FE001680918001D50F81E
:10424000042BD40744BFA9F10104A21851F8044B70
:1042500042F8044B1B1FF9D150F8043B002BEBD163
:1042600010BC704709022900010100C03209040096
:1042700000020300000009211001000122160007BE
:104280000581024000000705020240000000000016
:1042900010B5084979441C31074C7C441A34A142BA
:1042A00006D0081D0A68511888470146A142F8D176
:1042B00010BD00BF50000000700000000648012142
:1042C00001600021016041604FF4E051034A118018
:1042D0000160002070470000405C0040081E002084
:1042E0000BE050F8041BCB0744BFA9F10103591898
:1042F000002341F8043B121FFAD150F8042B002A86
:10430000EFD17047DDFFFFFF741800009C0500200F
:104310000000000021FFFFFF9C010000F4010000ED
:1043200000040020000000000448C0610221017266
:1043300003490162034A426208680047D41D002015
:10434000A8040020D80400200448002141604FF454
:104350000441034A1180016000207047405C004026
:10436000081E00207047FEE7FEE7FEE7FEE7704705
:10437000704770477047FFF783BBFFF705BF00002A
:104380000600FF0901A101150026FF00750895012F
:104390000900B20201C000001603480049004400B1
:1043A0002D00420072006A00740061006700000086
:1043B00000F0ACF8002801D0FFF76AFF0020FFF7FB
:1043C00005FF00F035F80000120100020000004077
:1043D00083045057000201020301000080B5FFF77B
:1043E00011FF024A11001820ABBEFBE726000200B5
:1043F0000E03420072006A00740061006700000052
:104400000148804701480047FD3E0008114400086C
:10441000C046C046C046C046FFF7CAFF07463846FA
:10442000FFF7DCFFFBE70000004870479005002025
:1044300080B5FFF7F3BF000004030904FFF792BF44
:10444000FFF791BFFFF790BFFFF78FBFFFF78EBF5A
:10445000FFF78DBFFFF78CBFFFF78BBFFFF78ABF5A
:10446000FFF7FEBFFFF7FEBFFFF7FEBFFFF7FEBF80
:10447000FFF7FEBFFFF7FEBFFFF7FEBFFFF7FEBF70
:10448000FFF7FEBFFFF7FEBFFFF7FEBFFFF7FEBF60
:10449000FFF7FEBFFFF7FEBFFFF7FEBFFFF7FEBF50
:1044A000FFF7FEBFFFF7FEBFFFF7FEBFFFF763BFDB
:1044B000FFF763BFFFF7FEBFFFF7FEBFFFF7FEBFCB
:1044C000FFF7FEBFFFF7FEBFFFF7FEBFFFF7FEBF20
:1044D000FFF7FEBFFFF7FEBFFFF7FEBFFFF7FEBF10
:1044E000FFF7FEBFFFF7FEBFFFF7FEBFFFF7FEBF00
:1044F000FFF7FEBFFFF7FEBFFFF7FEBFFFF7FEBFF0
:10450000FFF7FEBFFFF7FEBFFFF7FEBF01207047BA
:10451000000000000000000000000000000000009B
:104520000000000001000000CE050020D00D00209A
:10453000AA00AA0055005500A000A000AAAAAAAA95
:1045400055555555A0A0A0A0AA00AA005500550099
:10455000A000A000500050004000400050505050BB
:10456000404040400000000000000000000000004B
:10457000AA0A000054050000AA0A0000AA0A0000C6
:1045800055050000A0A0A0A0AAAA00005455000054
:10459000AAAA0000000000000000000000000000C7
:1045A000000000000000000000000000000000000B
:1045B0000000000000000000E1340008033500089E
:1045C000413500084335000845350008A735000887
:1045D00001360008CB350008D1350008D735000872
:1045E0000000000040000000DD340008293500080C
:1045F000DD340008DD340008DD340008DD34000857
:10460000DD340008DD34000839350008384400087E
:1046100004000000F04300080E000000984300086A
:10462000160000001C0500201A0000001A033200CA
:104630003000310030003100300000000000000088
:104640000000000000000000253D0008DD340008E7
:10465000DD340008DD340008DD340008DD340008F6
:10466000DD340008DD340008993C0008DD34000822
:10467000DD340008DD340008DD340008DD340008D6
:10468000C84300081200000064420008290000002E
:104690008043000816000000764200080900000070
:0C46A000FFFFFFFFFFFFFFFF0301000012
:04000005080044119A
:00000001FF
