:020000040800F2
:10000000000400201D170008CF160008D1160008B4
:10001000D3160008D5160008D71600080000000007
:10002000000000000000000000000000D9160008D9
:10003000DB16000800000000DD160008DF160008CF
:1000400085170008891700088D1700089117000808
:1000500095170008991700089D170008A1170008B8
:10006000A5170008A9170008AD170008B117000868
:10007000B5170008B9170008BD170008C117000818
:10008000C5170008C9170008CD170008D1170008C8
:10009000E1160008D9170008DD170008E11700086D
:1000A000E5170008E9170008ED170008F117000828
:1000B000F5170008F9170008FD17000801180008D7
:1000C00005180008091800080D1800081118000884
:1000D00015180008191800081D1800082118000834
:1000E00025180008291800082D18000810B5DFF899
:1000F0007C47002800D12BE000F098F8006880478A
:1001000020680A3010BD80B500F03CF9C178DFF8F6
:10011000602752788A420CD38278002A09D18288DB
:10012000002A06D1817200F081F8406880470020E3
:1001300002BD022002BD10B5DFF83047002800D113
:1001400006E000F073F88068804720680C3010BD2E
:10015000206801210182002010BD10B500F030FBA5
:10016000C1784079DFF80C271268926990472168BE
:100170008A7A002A07D0002805D10879002802D100
:100180008878002801D0022010BD00F04FF8C06828
:10019000804720684179C1722068C17801730020CE
:1001A00010BD10B5DFF8C4160968002802D102207E
:1001B000088239E0DFF8C04600202080087800225D
:1001C0007F23184215D1487A81064CBF42F00201C4
:1001D000002121704006207808D540F001002070F1
:1001E00000F024F800698047204610BD00F0FE00B2
:1001F000F5E700F07F03012BF6D000F07F00022826
:1002000012D1487900F00F0142F0010200F07EFAAD
:1002100005D500F030001028E2D12270E0E700F4AC
:100220004050B0F5805FF7E7002010BDDFF84C06C6
:1002300000687047F8B500F0A5F8017811F07F016B
:1002400002BF417A01F0DF01417252D0022905D18B
:100250004188002902D10179002901D00220F2BD94
:10026000417921F08005DFF818460A0654F8252068
:100270004CBF02F0300202F44052DFF8F4351B7834
:100280009D42EBD2002AE9D0807A0028E6D0080609
:1002900054F825000BD500F03000102825D1284651
:1002A00000F088FD3021284600F03DFD1DE000F4FF
:1002B0004050B0F5805F18D148F280064BF68F773A
:1002C00045B900F0B2FA2068384080F4405030431D
:1002D00020600AE0284600F05DFD54F82500384013
:1002E00080F44050304344F82500FFF79FFF4069F9
:1002F00080470020F2BD38B5DFF8700502685379F9
:1003000023F08000DFF878151C0651F820404CBF20
:1003100004F0300404F44054DFF854552D78A8421A
:1003200007D25588002D04D1002C02D0927A002AE1
:1003300001D1022032BD48F280021B0651F8203064
:1003400042BF48F6BF74234083F0100304D44BF639
:100350008F74234083F480531A4341F82020FFF721
:1003600065FF80698047002032BD80B500F00AF843
:10037000417A41F020014172FFF758FFC069804780
:10038000002002BDDFF8E40400687047DFF8DC24D9
:100390001268538A20B98888C01A108200207047DA
:1003A000086818187047F8B5DFF8C054286800F1DD
:1003B00010042688A168080015D0A6B1A08886423E
:1003C00088BF06463046884707462088801B208025
:1003D000608830186080002000F005FD324601463C
:1003E000384601F09AF8DFF89C64208838B100F0B4
:1003F00088F90021002000F0FDFC302030802868C2
:100400002188A288914202D303210172F1BD002903
:1004100001D00521F9E706210172DFF86C040068BC
:1004200080B2DFF86814002241F8102030203080BC
:10043000F1BD2DE9F843DFF83484D8F8000000F16D
:1004400010063188DFF83C5491B9007A04280FD1A6
:10045000DFF83C040178012906D100F08EF8302144
:1004600029800427037027E007271020288023E035
:10047000B4888C4205D30427A14288BF21460C468C
:1004800000E00227A0B2B16888478146002000F052
:10049000A9FCA2B20146484601F02CF8A1B2002006
:1004A00000F0A8FC3088001B308070882018708015
:1004B0003020288000F025F9D8F800000772BDE848
:1004C000F18338B500F07CF9457801787F2211423C
:1004D0002CD1092D02D1FFF716FE38E0052D0BD1E6
:1004E000C178802906D2817821B9818811B9807AB2
:1004F000002839D008203DE0032D0AD1C178012918
:1005000026D1818821BB407A800621D5FFF72DFFB7
:100510001DE0012D1CD1C178012919D18188B9B9FB
:10052000407A800614D5FFF785FE10E001F07F00C9
:10053000012804D10B2D0BD1FFF70FFE07E0022895
:1005400006D1012DEFD0032D02D1FFF7D4FE58B113
:100550002846DFF82013096849698847032808BF3F
:10056000092007D00028C5D1062000F006F8C549AB
:1005700030220A802168087231BDC349096889B2F6
:10058000C24A002342F81130704738B5B74D286889
:100590004178B84C2268062910D101787F2319428E
:1005A0002AD18078012808BFD1696BD0022808BF02
:1005B000116A67D003281FD1516A63E000293FD137
:1005C0004188C9B9C188022916D10179A1B9017838
:1005D0007F23194203D183880BB9AE4952E001F061
:1005E0007F03012B13D1002140799269904718B9FC
:1005F0002868807A0028F0D1286840782168096945
:100600008847032847D128680921017231BD01F0CC
:100610007F010229F0D1407900F00F0100F0700253
:1006200000F074F84CBF00F0300000F44050904BE4
:100630001B789942E0D2002ADED10028CDD1DBE739
:10064000082905D100787F210842D5D1924919E0C7
:100650000A29D1D1017801F07F010129CCD1817A19
:100660000029C9D041880029C6D101790029C3D108
:10067000C1880129C0D100214079926990470028A2
:10068000BAD186490800B7D0286800224282816129
:1006900000208847002029680A8A4FF6FF739A4293
:1006A00002D10920087231BD022801D0002A01D1EF
:1006B0000820F7E7087800061ED5C8880090236850
:1006C000009C94423CBF009808820FD382420DD216
:1006D00093F82C006E4C824238BF002005D392FB69
:1006E000F0F500FB152008B90120207093F82C00CC
:1006F0008882BDE831409CE60320087200F001F8D2
:1007000031BD67484FF44051018070475C4B000693
:1007100053F82100704738B562485B49096889B2CF
:10072000614A32F8111000EB4100504C21680A7AFE
:10073000092A14D010F8012B0A70216810F8012B37
:100740004A70851C35F8040B00F098FB216848803E
:10075000288800F093FB21688880A888C8802068DA
:10076000012101722068C08810B9FFF7AAFE01E0DC
:10077000FFF70BFFBDE8314041E010B500F020F875
:10078000017A022901D0042904D1FFF752FE206822
:10079000007A14E0062911D1417805290AD101789F
:1007A0007F22114206D1C07800F045F8FFF73EFDE8
:1007B000006A80472F4800688068804708201AE058
:1007C0002A4C2068704710B5FFF7FAFF007A02281C
:1007D00010D004280ED0032801D0052804D1FFF73B
:1007E000E2FD2068007A06E0072803D1214800686E
:1007F000C0688047082021680872BDE8104080B5B5
:1008000000F013F8FFF7BEFD017A082906D124494C
:100810004FF480520A801B4910220A80007A09286E
:1008200001D1012002BD002002BD204890F82C100B
:10083000002000F0E6BA70B50D4909780022104B8F
:100840000CE0D4B253F8245048F68F763540254357
:1008500048F28006354343F82450521C8A42F0D3B4
:1008600040F080001249086070BD0000500900206F
:10087000F0040020540900209409002058090020A9
:10088000005C00409E090020505C00400460004075
:10089000A4090020A3010008ED00000837010008AA
:1008A0009C09002000600040086000400004002017
:1008B0004C5C00407047000080B59448944909683A
:1008C000016094490A6842608A688260CA68C260AE
:1008D0000A6902610A6A42614A6A82618A6AC2617D
:1008E000C96A01628C4800680021817200F06AFECA
:1008F00000F0BCFE00F0EEF988480021016001BD67
:1009000080B58548016800228A720168CA72006851
:100910008349C9794172002000F0F6F94FF4007163
:10092000002000F0F8F91021002000F0FCF910215F
:10093000002000F050FA5021002000F04BFA002077
:1009400000F019FA774890F82C10002000F059FABE
:10095000002000F004FA0020FFF76DFF6F4801212E
:10096000016001BD6C480068807A10B16B480521B8
:100970000160704769480421016070477047704703
:1009800080B5654909680A78062816D102F07F0308
:10099000012B12D14879002827D18878222808D144
:1009A000614A100021D08A610020488290470020CF
:1009B00002BD212819D15D4AF3E702F07F02402AE7
:1009C00013D1112804D0122804D0132804D00CE02D
:1009D000574AE6E7574AE4E7574AC888574B5860F2
:1009E000052824BF01201870DBD2022002BD2DE9AA
:1009F000F04149490968097801F07F01402943D154
:100A000013280BD014283FD14D48016801F4E06150
:100A10004C4A11430160BFF34F8FFEE74A4C6078A8
:100A2000A17840EA012040F00068444D686805283C
:100A300009D100202070404600F04FFB00202870B4
:100A40006860BDE8F08106281ED3471F0020207093
:100A500017F003000BD04FF6FC703840001D8742A2
:100A600005D2FF22C11B3819401D00F0BBFC002637
:100A7000BE42E3D23019D0F80510404600F04BFBDF
:100A800008F10408361DF3E70220DAE72F49FFF7E3
:100A90007DBC2F49FFF77ABC1F490968C978052931
:100AA00001DB002070472B4A02EBC101FFF76EBC4F
:100AB0002949FFF76BBC2949FFF768BC01B900B1B0
:100AC00002207047002803D113480068012109E083
:100AD0001A487047002803D10F480068242101E01C
:100AE0000A4870470182002070471D494A8A48B968
:100AF000C879897901EB0020801A074909680882C2
:100B00000020704710481018704700005C09002052
:100B1000002004E0E0F7FF1F5009002098090020A2
:100B20005016000800040020B10A0008B70A0008A7
:100B3000C50A0008D50A0008EB0A00088C09002045
:100B40000CED00E00400FA05F4040020C8040020C5
:100B5000D004002054040020D8040020E004002029
:100B60003409002080B500F02FFA6448016841F094
:100B7000100101600168890889000160016841F085
:100B800002010160002000F04FFA002000F058FA46
:100B90004FF4806000F04DFA4FF42011002000F077
:100BA0002CFA012000F031FA392000F066FA002812
:100BB000FAD0022000F02CFA00F031FA0828FBD11C
:100BC000012000F045FA00F024F800F07BFA012142
:100BD0004FF40000BDE8044000F046BA10B582B002
:100BE00000214FF4000000F03FFA0121042000F042
:100BF00032FA03208DF802004FF48050ADF8000067
:100C0000102000F036F84FF48051204600F0ACFB85
:100C100013BD80B50121082000F01DFA4FF4F070DB
:100C200000F021F803208DF8020000A9344800F0FC
:100C300035FB01BD10B582B00121042000F00BFA94
:100C400003208DF802004FF48060ADF800004820CA
:100C500000F00FF84FF4007000F005F800A92046EE
:100C600000F01CFB13BDADF8000010208DF8030050
:100C700070478DF80300234C00A9204600F00EBBFE
:100C800070B54FF4004401251E4E4AF6C0300442B0
:100C90004FF4007130460AD000F064FB642000F08D
:100CA000F5FB00F012F801280AD000250BE000F057
:100CB0005BFB642000F0EAFB00F007F80028F4D1A9
:100CC000E403240CE1D1284670BD4FF48061304626
:100CD00000F041BB80B54FF4C06000F047FB14202A
:100CE0008DF8000001208DF801008DF802008DF8CC
:100CF000030000A800F03FFB01BD000000200240FF
:100D0000000C0140000801404FF6F8710840DFF880
:100D100054110860704710B500F01CF848F68F14A5
:100D20002340194313E010B500F014F848F6BF74DF
:100D30002340CC0648BF83F01003890644BF83F0EC
:100D400020039BB2FFE748F28001194389B242F8C1
:100D5000201010BDDFF8102152F820307047DFF866
:100D6000081151F820204BF68F731A4082F440523C
:100D700048F280030AE0DFF8F01051F8202048F62E
:100D80008F631A4048F2800300E000001A4341F8E4
:100D900020207047344951F82020520409D551F8D9
:100DA000202048F68F731A404CF280031A4341F812
:100DB000202070472C4951F82020520609D551F8BF
:100DC000202048F68F731A4048F2C0031A4341F8B6
:100DD0002020704731E0234A126892B202EBC00033
:100DE000224A30E034E01F49096889B201EBC000B3
:100DF0001E4933E01B4A126892B202EBC0001C4A43
:100E000023E0184A126892B202EBC000194A02EBC2
:100E100040003F2909D34A091F23194204BF521E2B
:100E200092B2910241F4004105E04A08C90744BF6B
:100E3000521C92B29102016070470A4A126892B243
:100E400002EBC0000C4A4908490042F810107047F4
:100E50000449096889B201EBC000074951F8100044
:100E600080B27047505C0040005C00400860004069
:100E7000046000400C600040006000400106090C66
:100E800041EA1020704700002DE9F84F0020ADF82E
:100E9000000048F28004464D48F60F7840F68F7BFC
:100EA000444EDFF81491DFF814A14BF6BF7725E02C
:100EB00056F82010ADF80010BDF8001009040BD54D
:100EC00056F820100BEA010146F820103C4901EBCE
:100ED000800050F8040C8047BDF8000000060DD5D6
:100EE00099F8000056F8201008EA010146F8201091
:100EF000344901EB800050F8040C8047706CAAF86C
:100F00000000000452D5BAF8000010F00F0089F874
:100F10000000CDD130682880288800F0300068803B
:100F2000288800F4405028803068384042F2200180
:100F3000484020433060BAF80000C006306805D44D
:100F400008EA00003060FFF718FC16E0ADF800007A
:100F5000BDF80000000506D530680BEA00003060DF
:100F6000FFF7D9FB09E0BDF800000004C6D53068E2
:100F70000BEA00003060FFF726FC30683840298813
:100F8000C90448BF80F480502988890448BF80F490
:100F900000506988C90648BF80F01000698889063A
:100FA00048BF80F0200080B220433060BDE8F18F60
:100FB0009C090020005C0040A5090020A209002037
:100FC000AC040020900400203648016841F0010183
:100FD00001604168344A114041600168334A114060
:100FE0000160016821F480210160416821F4FE0163
:100FF00041604FF41F01816070472D4A136823F44C
:101000007C1318430843106070472A4908607047F2
:1010100027490A68920850EA82000860704724480D
:10102000006800F00C00704721490A6822F0F002C5
:1010300003E01F490A6822F4E06210430860704729
:101040001B490A6822F4605242EAC00008607047F7
:10105000194908607047194A0029116814BF0843EC
:1010600021EA000010607047154A0029116814BF7A
:10107000084321EA0000106070474109094A01292C
:1010800008BF116803D002290CBF116A516A0122FE
:1010900000F01F0002FA00F0084018BF0120C0B2A3
:1010A00070470000001002400000FFF8FFFFF6FE4E
:1010B0000410024060004242D80042421810024030
:1010C0001C10024000E00000DFF8B800DFF8B810A4
:1010D0000160DFF8B8100160704738B5054600F0D0
:1010E00017F8042813D1DFF8A840206840F0020068
:1010F00020606560206840F04000206000F008F843
:10110000052804D0216841F6FD721140216032BDEE
:101110004FF4302040E0F8B507460C460020009020
:1011200000F01BF8042816D1194D286840F0010082
:1011300028603C8000F011F841F6FE76042805D1C5
:10114000B81C0090200C009900F006F8052802D089
:10115000296831402960F2BD08804FF400501BE03F
:101160000C480168C90701D501207047016849078B
:1011700001D5022070470068C00601D503207047E2
:10118000042070470420024023016745AB89EFCD5E
:10119000102002400C20024010B5FFE70446FFF784
:1011A000DFFF03E02CB1FFF7DBFF641E0128F9D05D
:1011B00004B9052010BD000082B03448016841F038
:1011C000010101604168324A114041600168314AC1
:1011D00011400160016821F480210160416821F41F
:1011E000FE0141604FF41F018160002101910091D7
:1011F000016841F480310160016801F4003100911F
:101200000199491C0191009919B90199B1F5A06F93
:10121000F2D1016811F4003118BF0121C9B2009167
:101220000099012930D11C490A6842F010020A6075
:101230000A68920892000A600A6842F002020A6094
:101240004168416041684160416841F480614160AA
:10125000416821F47C114160416841F4E81141602A
:10126000016841F08071016001688901FCD5416825
:10127000890889004160416841F00201416041688C
:1012800001F00C010829FAD102B0704700100240A9
:101290000000FFF8FFFFF6FE002002402DE9F041BC
:1012A000CB7803F00F02DB0644BF8B781A430B8820
:1012B00001240F25DEB216B3D0F800C0002604FAD0
:1012C00006F707EA0308B84514D14FEA860E05FA77
:1012D0000EF82CEA080C02FA0EFE4EEA0C0C91F8FD
:1012E00003E0BEF1280F08BF476103D0BEF1480FED
:1012F00008BF0761761C082EE1D3C0F800C04FF488
:101300008076B34225D3D0F804C0002606F1080742
:1013100004FA07F707EA0308B84515D14FEA860E25
:1013200005FA0EF82CEA080C02FA0EFE4EEA0C0C36
:1013300091F803E0BEF1280F08BF476191F803E080
:10134000BEF1480F08BF0761761C082EDED3C0F837
:1013500004C0BDE8F08180680140080018BF01208A
:10136000C0B2704701617047416170471849084336
:1013700018490860704770B503781A460121C4788F
:10138000ECB1144B1B6803F4E063C3F5E0631B0A84
:101390004478C3F10405AC4085780F2626FA03F3A0
:1013A0002B4023431B010C4C1355007842110B4B6F
:1013B00000F01F0001FA00F043F8220070BD501148
:1013C000074A03F01F03994042F8201070BD000047
:1013D0000000FA050CED00E000E400E000E100E0B0
:1013E00080E100E062F30F2262F31F42401810F028
:1013F000030308D0C91A1FD3DB0748BF00F8012D2B
:1014000028BF20F8022D130030B4144615461039B9
:1014100028BF20E93C00FAD8490728BF20E90C0082
:1014200048BF40F8042D890028BF20F8022D48BF8E
:1014300000F8012D30BC7047C91818BF00F8012D05
:10144000CB0728BF00F8012D7047000010B5FFF74B
:10145000C5FBFFF7EFFB0A4800F018F8FFF710FC98
:1014600048B908484168084C61602160006800F094
:1014700069F920688047FFF775FB00F0D9F8FEE7AF
:1014800080841E00002000088409002001B402E0CE
:101490000098401E009000980028F9D101B07047D4
:1014A00070B5104C104D28682080104E208831886F
:1014B0000840000448BFFFF7E7FC20883188084057
:1014C000400505D54FF6FF30286009484068804741
:1014D000208831880840800444BF4DF6FF702860A2
:1014E00070BD00BFA2090020445C0040A00900209C
:1014F0000004002010B50F4B03EB4101521C5210A9
:1015000009E010F8013B10F8014B43EA042321F8ED
:10151000023B891C521EF4D110BD064B03EB410166
:10152000521C521004E051F8043B20F8023B521EBA
:10153000F9D170470060004080B500F007F9020063
:101540000023DB431068984204D011000220ABBE98
:10155000002010605068984204D0111D0220ABBEDC
:101560000020506001BD000010B40FE001680918B0
:10157000001D50F8042BD40744BFA9F10104A218A0
:1015800051F8044B42F8044B1B1FF9D150F8043BAF
:10159000002BEBD110BC704710B5084979441C31C1
:1015A000074C7C441A34A14206D0081D0A68511821
:1015B00088470146A142F8D110BD00BF500000008D
:1015C00070000000064801210160002101604160B7
:1015D0004FF4E051034A1180FFE70160002070479B
:1015E000405C0040A00900200BE050F8041BCB0732
:1015F00044BFA9F101035918002341F8043B121F0D
:10160000FAD150F8042B002AEFD17047DDFFFFFF1D
:10161000B4040000F4040020000000004DFFFFFFB0
:10162000F400000010020000000400200000000090
:101630000448C0610221017203490162034A426207
:10164000086800473409002000040020300400200E
:1016500009021B00010100C0320904000000030060
:101660000000092110010001221600000448002199
:1016700041604FF42441034A11800160002070470B
:10168000405C0040A00900200600FF0901A10115EF
:101690000026FF00750895010900B20201C0000094
:1016A000160348004900440042006F006F007400B8
:1016B0002D0053005400000000F0BAF8002801D0BB
:1016C000FFF76AFF0020FFF7C1FE00F043F8704704
:1016D000FEE7FEE7FEE7FEE770477047704770479A
:1016E000FFF7DEBE120100020000004083045057E5
:1016F000000201020301000080B5FFF71DFF024A4E
:1017000011001820ABBEFBE7260002000E034200CA
:1017100072006A00740061006700000001488047A1
:1017200001480047B91100082D170008C046C046FF
:10173000C046C046FFF7C0FF07463846FFF7DCFF4C
:10174000FBE7000080F30888704770470048704747
:10175000E804002080B5FFF7EFBF00000403090490
:10176000FFF7B5BFFFF7B4BFFFF7B3BFFFF7B2BFD7
:10177000FFF7B1BFFFF7B0BFFFF7AFBFFFF7AEBFD7
:10178000FFF7ADBFFFF7FEBFFFF7FEBFFFF7FEBFDE
:10179000FFF7FEBFFFF7FEBFFFF7FEBFFFF7FEBF7D
:1017A000FFF7FEBFFFF7FEBFFFF7FEBFFFF7FEBF6D
:1017B000FFF7FEBFFFF7FEBFFFF7FEBFFFF7FEBF5D
:1017C000FFF7FEBFFFF7FEBFFFF7FEBFFFF7FEBF4D
:1017D000FFF7FEBFFFF784BFFFF7FEBFFFF7FEBFB7
:1017E000FFF7FEBFFFF7FEBFFFF7FEBFFFF7FEBF2D
:1017F000FFF7FEBFFFF7FEBFFFF7FEBFFFF7FEBF1D
:10180000FFF7FEBFFFF7FEBFFFF7FEBFFFF7FEBF0C
:10181000FFF7FEBFFFF7FEBFFFF7FEBFFFF7FEBFFC
:10182000FFF7FEBFFFF7FEBFFFF7FEBFFFF7FEBFEC
:1018300001207047B9080008010900087D09000867
:101840007F09000881090008EF090008BD0A0008A7
:101850008D0A0008930A0008990A00080000000099
:1018600040000000B508000865090008B508000838
:10187000B5080008B5080008B5080008B508000854
:10188000B5080008750900085C170008040000008E
:101890000C1700080E000000A0160008160000003B
:1018A000740400201A0000001A03320030003100D6
:1018B0003000310030000000000000000000000097
:1018C00000000000B5080008B5080008B5080008C9
:1018D000B5080008B5080008B5080008B5080008F4
:1018E000B5080008B5080008B5080008B5080008E4
:1018F000B5080008B5080008B5080008E416000897
:1019000012000000501600081B0000008816000896
:10191000160000006216000809000000FFFFFFFF2C
:08192000FFFFFFFF01010000C1
:040000050800172DAB
:00000001FF
